{
  "contractName": "Bank",
  "abi": [
    {
      "constant": true,
      "inputs": [
        {
          "name": "",
          "type": "address"
        }
      ],
      "name": "balanceOf",
      "outputs": [
        {
          "name": "",
          "type": "uint256"
        }
      ],
      "payable": false,
      "stateMutability": "view",
      "type": "function"
    },
    {
      "inputs": [
        {
          "name": "initialSupply",
          "type": "uint256"
        }
      ],
      "payable": false,
      "stateMutability": "nonpayable",
      "type": "constructor"
    },
    {
      "constant": false,
      "inputs": [
        {
          "name": "_to",
          "type": "address"
        },
        {
          "name": "_value",
          "type": "uint256"
        }
      ],
      "name": "transfer",
      "outputs": [],
      "payable": false,
      "stateMutability": "nonpayable",
      "type": "function"
    }
  ],
  "bytecode": "0x608060405234801561001057600080fd5b5060405160208061033583398101806040528101908080519060200190929190505050806000803373ffffffffffffffffffffffffffffffffffffffff1673ffffffffffffffffffffffffffffffffffffffff16815260200190815260200160002081905550506102af806100866000396000f30060806040526004361061004c576000357c0100000000000000000000000000000000000000000000000000000000900463ffffffff16806370a0823114610051578063a9059cbb146100a8575b600080fd5b34801561005d57600080fd5b50610092600480360381019080803573ffffffffffffffffffffffffffffffffffffffff1690602001909291905050506100f5565b6040518082815260200191505060405180910390f35b3480156100b457600080fd5b506100f3600480360381019080803573ffffffffffffffffffffffffffffffffffffffff1690602001909291908035906020019092919050505061010d565b005b60006020528060005260406000206000915090505481565b806000803373ffffffffffffffffffffffffffffffffffffffff1673ffffffffffffffffffffffffffffffffffffffff168152602001908152602001600020541015151561015a57600080fd5b6000808373ffffffffffffffffffffffffffffffffffffffff1673ffffffffffffffffffffffffffffffffffffffff16815260200190815260200160002054816000808573ffffffffffffffffffffffffffffffffffffffff1673ffffffffffffffffffffffffffffffffffffffff1681526020019081526020016000205401101515156101e757600080fd5b806000803373ffffffffffffffffffffffffffffffffffffffff1673ffffffffffffffffffffffffffffffffffffffff16815260200190815260200160002060008282540392505081905550806000808473ffffffffffffffffffffffffffffffffffffffff1673ffffffffffffffffffffffffffffffffffffffff1681526020019081526020016000206000828254019250508190555050505600a165627a7a7230582080b4faf2da2b31f2aae3014a7d1746781ecb355dbedf0fa5ba05e5d5bd1f0b9a0029",
  "source": "pragma solidity ^0.4.20;\n\ncontract Bank {\n    /* This creates an array with all balances */\n    mapping (address => uint256) public balanceOf;\n\n    /* Initializes contract with initial supply tokens to the creator of the contract */\n    // function Bank(\n    //     uint256 initialSupply\n    //     ) public {\n    //     balanceOf[msg.sender] = initialSupply;              // Give the creator all initial tokens\n    // }\n    constructor(uint256 initialSupply) public {\n      balanceOf[msg.sender] = initialSupply;              // Give the creator all initial tokens\n    }\n\n    /* Send coins */\n    function transfer(address _to, uint256 _value) public {\n        require(balanceOf[msg.sender] >= _value);           // Check if the sender has enough\n        require(balanceOf[_to] + _value >= balanceOf[_to]); // Check for overflows\n        balanceOf[msg.sender] -= _value;                    // Subtract from the sender\n        balanceOf[_to] += _value;                           // Add the same to the recipient\n    }\n}\n",
  "sourcePath": "/Users/mercury/Code/outsource/marst/bank/contracts/Bank.sol",
  "compiler": {
    "name": "solc",
    "version": "0.4.23+commit.124ca40d.Emscripten.clang"
  },
  "schemaVersion": "2.0.0",
  "updatedAt": "2018-05-22T11:56:04.870Z"
}