{
  "contractName": "Purchase",
  "abi": [
    {
      "constant": true,
      "inputs": [],
      "name": "seller",
      "outputs": [
        {
          "name": "",
          "type": "address"
        }
      ],
      "payable": false,
      "stateMutability": "view",
      "type": "function"
    },
    {
      "constant": true,
      "inputs": [],
      "name": "value",
      "outputs": [
        {
          "name": "",
          "type": "uint256"
        }
      ],
      "payable": false,
      "stateMutability": "view",
      "type": "function"
    },
    {
      "constant": true,
      "inputs": [],
      "name": "buyer",
      "outputs": [
        {
          "name": "",
          "type": "address"
        }
      ],
      "payable": false,
      "stateMutability": "view",
      "type": "function"
    },
    {
      "constant": true,
      "inputs": [],
      "name": "state",
      "outputs": [
        {
          "name": "",
          "type": "uint8"
        }
      ],
      "payable": false,
      "stateMutability": "view",
      "type": "function"
    },
    {
      "inputs": [],
      "payable": false,
      "stateMutability": "nonpayable",
      "type": "constructor"
    },
    {
      "anonymous": false,
      "inputs": [],
      "name": "Aborted",
      "type": "event"
    },
    {
      "anonymous": false,
      "inputs": [],
      "name": "PurchaseConfirmed",
      "type": "event"
    },
    {
      "anonymous": false,
      "inputs": [],
      "name": "ItemReceived",
      "type": "event"
    },
    {
      "constant": false,
      "inputs": [],
      "name": "abort",
      "outputs": [],
      "payable": false,
      "stateMutability": "nonpayable",
      "type": "function"
    },
    {
      "constant": false,
      "inputs": [],
      "name": "confirmPurchase",
      "outputs": [],
      "payable": true,
      "stateMutability": "payable",
      "type": "function"
    },
    {
      "constant": false,
      "inputs": [],
      "name": "confirmReceived",
      "outputs": [],
      "payable": false,
      "stateMutability": "nonpayable",
      "type": "function"
    }
  ],
  "bytecode": "0x608060405234801561001057600080fd5b5033600160006101000a81548173ffffffffffffffffffffffffffffffffffffffff021916908373ffffffffffffffffffffffffffffffffffffffff16021790555060023481151561005e57fe5b046000819055503460005460020214151561007857600080fd5b610672806100876000396000f300608060405260043610610083576000357c0100000000000000000000000000000000000000000000000000000000900463ffffffff16806308551a531461008857806335a063b4146100df5780633fa4f245146100f65780637150d8ae1461012157806373fac6f014610178578063c19d93fb1461018f578063d6960697146101c8575b600080fd5b34801561009457600080fd5b5061009d6101d2565b604051808273ffffffffffffffffffffffffffffffffffffffff1673ffffffffffffffffffffffffffffffffffffffff16815260200191505060405180910390f35b3480156100eb57600080fd5b506100f46101f8565b005b34801561010257600080fd5b5061010b61035b565b6040518082815260200191505060405180910390f35b34801561012d57600080fd5b50610136610361565b604051808273ffffffffffffffffffffffffffffffffffffffff1673ffffffffffffffffffffffffffffffffffffffff16815260200191505060405180910390f35b34801561018457600080fd5b5061018d610387565b005b34801561019b57600080fd5b506101a4610555565b604051808260028111156101b457fe5b60ff16815260200191505060405180910390f35b6101d0610568565b005b600160009054906101000a900473ffffffffffffffffffffffffffffffffffffffff1681565b600160009054906101000a900473ffffffffffffffffffffffffffffffffffffffff1673ffffffffffffffffffffffffffffffffffffffff163373ffffffffffffffffffffffffffffffffffffffff1614151561025457600080fd5b600080600281111561026257fe5b600260149054906101000a900460ff16600281111561027d57fe5b14151561028957600080fd5b7f72c874aeff0b183a56e2b79c71b46e1aed4dee5e09862134b8821ba2fddbf8bf60405160405180910390a160028060146101000a81548160ff021916908360028111156102d357fe5b0217905550600160009054906101000a900473ffffffffffffffffffffffffffffffffffffffff1673ffffffffffffffffffffffffffffffffffffffff166108fc3073ffffffffffffffffffffffffffffffffffffffff16319081150290604051600060405180830381858888f19350505050158015610357573d6000803e3d6000fd5b5050565b60005481565b600260009054906101000a900473ffffffffffffffffffffffffffffffffffffffff1681565b600260009054906101000a900473ffffffffffffffffffffffffffffffffffffffff1673ffffffffffffffffffffffffffffffffffffffff163373ffffffffffffffffffffffffffffffffffffffff161415156103e357600080fd5b60018060028111156103f157fe5b600260149054906101000a900460ff16600281111561040c57fe5b14151561041857600080fd5b7fe89152acd703c9d8c7d28829d443260b411454d45394e7995815140c8cbcbcf760405160405180910390a160028060146101000a81548160ff0219169083600281111561046257fe5b0217905550600260009054906101000a900473ffffffffffffffffffffffffffffffffffffffff1673ffffffffffffffffffffffffffffffffffffffff166108fc6000549081150290604051600060405180830381858888f193505050501580156104d1573d6000803e3d6000fd5b50600160009054906101000a900473ffffffffffffffffffffffffffffffffffffffff1673ffffffffffffffffffffffffffffffffffffffff166108fc3073ffffffffffffffffffffffffffffffffffffffff16319081150290604051600060405180830381858888f19350505050158015610551573d6000803e3d6000fd5b5050565b600260149054906101000a900460ff1681565b600080600281111561057657fe5b600260149054906101000a900460ff16600281111561059157fe5b14151561059d57600080fd5b60005460020234148015156105b157600080fd5b7fd5d55c8a68912e9a110618df8d5e2e83b8d83211c57a8ddd1203df92885dc88160405160405180910390a133600260006101000a81548173ffffffffffffffffffffffffffffffffffffffff021916908373ffffffffffffffffffffffffffffffffffffffff1602179055506001600260146101000a81548160ff0219169083600281111561063d57fe5b021790555050505600a165627a7a723058204fded086e7f9f61ad35338f81a7f8ee28851907bd7d952ddcb16e3aeacb1f8650029",
  "source": "pragma solidity ^0.4.21;\n\ncontract Purchase {\n    uint public value;\n    address public seller;\n    address public buyer;\n    enum State { Created, Locked, Inactive }\n    State public state;\n\n    //确保 `msg.value` 是一个偶数。\n    //如果它是一个奇数，则它将被截断。\n    //通过乘法检查它不是奇数。\n    constructor() public {\n      seller = msg.sender;\n      value = msg.value / 2;\n      require((2 * value) == msg.value);      \n    }\n    \n    modifier condition(bool _condition) {\n        require(_condition);\n        _;\n    }\n\n    modifier onlyBuyer() {\n        require(msg.sender == buyer);\n        _;\n    }\n\n    modifier onlySeller() {\n        require(msg.sender == seller);\n        _;\n    }\n\n    modifier inState(State _state) {\n        require(state == _state);\n        _;\n    }\n\n    event Aborted();\n    event PurchaseConfirmed();\n    event ItemReceived();\n\n    ///中止购买并回收以太币。\n    ///只能在合约被锁定之前由卖家调用。\n    function abort()\n        public\n        onlySeller\n        inState(State.Created)\n    {\n        emit Aborted();\n        state = State.Inactive;\n        seller.transfer(this.balance);\n    }\n\n    /// 买家确认购买。\n    /// 交易必须包含 `2 * value` 个以太币。\n    /// 以太币会被锁定，直到 confirmReceived 被调用。\n    function confirmPurchase()\n        public\n        inState(State.Created)\n        condition(msg.value == (2 * value))\n        payable\n    {\n        emit PurchaseConfirmed();\n        buyer = msg.sender;\n        state = State.Locked;\n    }\n\n    /// 确认你（买家）已经收到商品。\n    /// 这会释放被锁定的以太币。\n    function confirmReceived()\n        public\n        onlyBuyer\n        inState(State.Locked)\n    {\n        emit ItemReceived();\n        // 首先修改状态很重要，否则的话，由 `transfer` 所调用的合约可以回调进这里（再次接收以太币）。\n        state = State.Inactive;\n\n        // 注意: 这实际上允许买方和卖方阻止退款 - 应该使用取回模式。\n        buyer.transfer(value);\n        seller.transfer(this.balance);// seller(contract).balance\n    }\n}\n",
  "sourcePath": "/Users/mercury/Code/outsource/marst/bank/contracts/Dbuy.sol",
  "compiler": {
    "name": "solc",
    "version": "0.4.23+commit.124ca40d.Emscripten.clang"
  },
  "schemaVersion": "2.0.0",
  "updatedAt": "2018-05-22T11:54:01.531Z"
}